:020000040000fa
:080000000002040000000000f2
:020000040000fa
:0400080010030000e1
:020000040000fa
:04000c007c1b000059
:020000040000fa
:04001000921b00003f
:020000040000fa
:04001400a81b000025
:020000040000fa
:04001800be1b00000b
:020000040000fa
:04001c0010030000cd
:020000040000fa
:0400200010030000c9
:020000040000fa
:0400240010030000c5
:020000040000fa
:0400280010030000c1
:020000040000fa
:04002c0010030000bd
:020000040000fa
:0400300010030000b9
:020000040000fa
:0400340010030000b5
:020000040000fa
:0400380010030000b1
:020000040000fa
:04003c0010030000ad
:020000040000fa
:0400400010030000a9
:020000040000fa
:0400440010030000a5
:020000040000fa
:04004800ee180000ae
:020000040000fa
:04004c00100300009d
:020000040000fa
:040050001003000099
:020000040000fa
:040054001003000095
:020000040000fa
:040058001003000091
:020000040000fa
:04005c00100300008d
:020000040000fa
:040060001003000089
:020000040000fa
:040064001003000085
:020000040000fa
:040068001003000081
:020000040000fa
:04006c00100300007d
:020000040000fa
:040070001003000079
:020000040000fa
:040074001003000075
:020000040000fa
:040078001003000071
:020000040000fa
:04007c00100300006d
:020000040000fa
:040080001003000069
:020000040000fa
:040084001003000065
:020000040000fa
:040088001003000061
:020000040000fa
:04008c00100300005d
:020000040000fa
:040090001003000059
:020000040000fa
:040094001003000055
:020000040000fa
:040098001003000051
:020000040000fa
:04009c00100300004d
:020000040000fa
:0400a0001003000049
:020000040000fa
:0400a4001003000045
:020000040000fa
:0400a8001003000041
:020000040000fa
:0400ac00100300003d
:020000040000fa
:0400b0001003000039
:020000040000fa
:0400b4001003000035
:020000040000fa
:0400b8001003000031
:020000040000fa
:0400bc00100300002d
:020000040000fa
:0400c0001003000029
:020000040000fa
:0400c4001003000025
:020000040000fa
:0400c8001003000021
:020000040000fa
:0400cc00100300001d
:020000040000fa
:0400d0001003000019
:020000040000fa
:0400d4001003000015
:020000040000fa
:0400d8001003000011
:020000040000fa
:0400dc00100300000d
:020000040000fa
:0400e0001003000009
:020000040000fa
:0400e4001003000005
:020000040000fa
:0400e8001003000001
:020000040000fa
:0400ec0010030000fd
:020000040000fa
:0400f00010030000f9
:020000040000fa
:0400f40010030000f5
:020000040000fa
:0400f80010030000f1
:020000040000fa
:0400fc0010030000ed
:020000040000fa
:0401000010030000e8
:020000040000fa
:0401040010030000e4
:020000040000fa
:0401080010030000e0
:020000040000fa
:04010c0010030000dc
:020000040000fa
:0401100010030000d8
:020000040000fa
:0401140010030000d4
:020000040000fa
:0401180010030000d0
:020000040000fa
:04011c0010030000cc
:020000040000fa
:0401200010030000c8
:020000040000fa
:0401240010030000c4
:020000040000fa
:0401280010030000c0
:020000040000fa
:04012c0010030000bc
:020000040000fa
:0401300010030000b8
:020000040000fa
:0401340010030000b4
:020000040000fa
:0401380010030000b0
:020000040000fa
:04013c0010030000ac
:020000040000fa
:0401400010030000a8
:020000040000fa
:0401440010030000a4
:020000040000fa
:0401480010030000a0
:020000040000fa
:04014c00100300009c
:020000040000fa
:040150001003000098
:020000040000fa
:040154001003000094
:020000040000fa
:040158001003000090
:020000040000fa
:04015c00100300008c
:020000040000fa
:040160001003000088
:020000040000fa
:040164001003000084
:020000040000fa
:040168001003000080
:020000040000fa
:04016c00100300007c
:020000040000fa
:040170001003000078
:020000040000fa
:040174001003000074
:020000040000fa
:040178001003000070
:020000040000fa
:04017c00100300006c
:020000040000fa
:040180001003000068
:020000040000fa
:040184001003000064
:020000040000fa
:040188001003000060
:020000040000fa
:04018c00100300005c
:020000040000fa
:040190001003000058
:020000040000fa
:040194001003000054
:020000040000fa
:040198001003000050
:020000040000fa
:04019c00100300004c
:020000040000fa
:0402080010030000df
:020000040000fa
:04020c00d41b0000ff
:020000040000fa
:04021000ea1b0000e5
:020000040000fa
:04021400001c0000ca
:020000040000fa
:04021800161c0000b0
:020000040000fa
:04021c0010030000cb
:020000040000fa
:0402200010030000c7
:020000040000fa
:0402240010030000c3
:020000040000fa
:0402280010030000bf
:020000040000fa
:04022c0010030000bb
:020000040000fa
:0402300010030000b7
:020000040000fa
:0402340010030000b3
:020000040000fa
:0402380010030000af
:020000040000fa
:04023c0010030000ab
:020000040000fa
:0402400010030000a7
:020000040000fa
:0402440010030000a3
:020000040000fa
:04024800100300009f
:020000040000fa
:04024c00100300009b
:020000040000fa
:040250001003000097
:020000040000fa
:040254001003000093
:020000040000fa
:04025800100300008f
:020000040000fa
:04025c00100300008b
:020000040000fa
:040260001003000087
:020000040000fa
:040264001003000083
:020000040000fa
:04026800100300007f
:020000040000fa
:04026c00100300007b
:020000040000fa
:040270001003000077
:020000040000fa
:040274001003000073
:020000040000fa
:04027800100300006f
:020000040000fa
:04027c00100300006b
:020000040000fa
:040280001003000067
:020000040000fa
:040284001003000063
:020000040000fa
:04028800100300005f
:020000040000fa
:04028c00100300005b
:020000040000fa
:040290001003000057
:020000040000fa
:040294001003000053
:020000040000fa
:04029800100300004f
:020000040000fa
:04029c00100300004b
:020000040000fa
:0402a0001003000047
:020000040000fa
:0402a4001003000043
:020000040000fa
:0402a800100300003f
:020000040000fa
:0402ac00100300003b
:020000040000fa
:0402b0001003000037
:020000040000fa
:0402b4001003000033
:020000040000fa
:0402b800100300002f
:020000040000fa
:0402bc00100300002b
:020000040000fa
:0402c0001003000027
:020000040000fa
:0402c4001003000023
:020000040000fa
:0402c800100300001f
:020000040000fa
:0402cc00100300001b
:020000040000fa
:0402d0001003000017
:020000040000fa
:0402d4001003000013
:020000040000fa
:0402d800100300000f
:020000040000fa
:0402dc00100300000b
:020000040000fa
:0402e0001003000007
:020000040000fa
:0402e4001003000003
:020000040000fa
:0402e80010030000ff
:020000040000fa
:0402ec0010030000fb
:020000040000fa
:0402f00010030000f7
:020000040000fa
:0402f40010030000f3
:020000040000fa
:0402f80010030000ef
:020000040000fa
:0402fc0010030000eb
:020000040000fa
:0403000010030000e6
:020000040000fa
:0403040010030000e2
:020000040000fa
:0403080010030000de
:020000040000fa
:04030c0010030000da
:020000040000fa
:0403100010030000d6
:020000040000fa
:0403140010030000d2
:020000040000fa
:0403180010030000ce
:020000040000fa
:04031c0010030000ca
:020000040000fa
:0403200010030000c6
:020000040000fa
:0403240010030000c2
:020000040000fa
:0403280010030000be
:020000040000fa
:04032c0010030000ba
:020000040000fa
:0403300010030000b6
:020000040000fa
:0403340010030000b2
:020000040000fa
:0403380010030000ae
:020000040000fa
:04033c0010030000aa
:020000040000fa
:0403400010030000a6
:020000040000fa
:0403440010030000a2
:020000040000fa
:04034800100300009e
:020000040000fa
:04034c00100300009a
:020000040000fa
:040350001003000096
:020000040000fa
:040354001003000092
:020000040000fa
:04035800100300008e
:020000040000fa
:04035c00100300008a
:020000040000fa
:040360001003000086
:020000040000fa
:040364001003000082
:020000040000fa
:04036800100300007e
:020000040000fa
:04036c00100300007a
:020000040000fa
:040370001003000076
:020000040000fa
:040374001003000072
:020000040000fa
:04037800100300006e
:020000040000fa
:04037c00100300006a
:020000040000fa
:040380001003000066
:020000040000fa
:040384001003000062
:020000040000fa
:04038800100300005e
:020000040000fa
:04038c00100300005a
:020000040000fa
:040390001003000056
:020000040000fa
:040394001003000052
:020000040000fa
:04039800100300004e
:020000040000fa
:04039c00100300004a
:020000040000fa
:10040000af8d20000eff27000e01880000000000c5
:10041000000020000000e000020032000001200087
:100420002002880014000700c80007000000e00058
:1004300003003a0040ab2100010020000200370019
:100440000000200001002000810f70000100320038
:1004500014000700000020000000e000020032004d
:100460000000020000000000641a0200000000000a
:100470000040da000000fe004440a900a000200077
:100480000000e000030032000020200090018800fe
:100490004440a800000006008a1f78008b1f7800e7
:1004a00000000600a1028800800478000000eb0034
:1004b0001f003700e284440054a0b4009905ba003c
:1004c000e284440054a0b4009906ba00e2844400d7
:1004d00054a0b4000006eb00476fde00fd07b20039
:1004e000ae018800636ce10003003a00eaff0700f8
:1004f0000000eb000e003700606ce10008003a00dd
:10050000004deb000a05e800020039003420ec0041
:100510000af0a0008b05e900f9ff3e000400370057
:100520006168e100010032000086eb000b0007006b
:1005300019c7ba001905ba000e04e00003003a001a
:100540000a00e000dbff3a0000000600fe07b200f0
:10055000ae0288008a047800f5ff37000cd0a300b3
:10056000e20f4d001c00390089027800354dba00b9
:100570000a05e800020039003420ec000af0a0006f
:100580008b05e9000f003200254dba000a05e8008e
:10059000020039003420ec000af0a0008b05e900cd
:1005a000080032000c00e0000600320015cdba0051
:1005b0000a05e800020039003420ec000af0a0002f
:1005c0008b05e9008984e80054a0b4000b00e0002a
:1005d000e2ff3a00000006009902ba00055d7800cb
:1005e0008b05e900f7ff3200c82ade00055d7800c0
:1005f0008b05e900f3ff32000c00e000f1ff320050
:1006000019ddba00eeff37009a0604000000000072
:10061000a010040000000000000004000000000022
:100620000040da000000fe000a00fa00110020007d
:10063000b1bf9f00c0bf9f006a80570075070700c9
:100640004fb897000080fa00000006000a00fa0088
:1006500051002000b1bf9f00c0bf9f006a805700bb
:100660006e0707005fb897000080fa0000000600e0
:10067000889fbe0080047800c04680000000e00033
:1006800004003a001a0007000084eb000000e000bc
:1006900008003500c84680000900e000050032006f
:1006a00009004400120007000000e00001003d00c6
:1006b0000084eb00080078004f04be000000060034
:1006c000000178001001e200030035001061a8006d
:1006d000000028001021b700300880004108800089
:1006e0000200e000010032000089be0000000600a8
:1006f000800078000100e00003003a0000002000c4
:10070000c0468800000005000080eb0002002000c9
:10071000828f500002003e00c14688000000eb00be
:10072000000006000600fa00000f7800110798008c
:10073000220798001e009000ae009000d10807002c
:100740002e0090000080fa00000006000000050066
:1007500003f0a200889fbe008a9fbe008c1f780015
:10076000b8000700bf0033006450e1004f003200c2
:100770006420e1005200320003826c0007003b005d
:100780000905d0000306d000820f54000c065d005e
:100790000200390002003200890178000306780067
:1007a0008582550004003d000003fd008103fd002b
:1007b0008502ea008b854200840f720002003b0034
:1007c00060001000e08018006011b8000005eb0028
:1007d0007a28e1000a00390006007800c75ddd00d4
:1007e000f707b200878075002d0037008281710005
:1007f0000a017800610560008180d1000080d3008b
:100800008502e900f9ff3b000604400087844800a8
:1008100002003b0060041400e0841c000988a3006f
:10082000070032008a8171008281710061016400d9
:100830008904d1000884d3008b05e8001700370035
:100840000978a30013003a000b00e0001300340005
:100850008b05e9000804440089844c000a447400b4
:100860000978a3000d003a000b00e00007003400f7
:100870008b05e9000804440089844c0001003a001b
:100880000b0020000978a300f7ff32000001eb0005
:1008900002003700828171000a0178002e000700f3
:1008a0000cf0a70001f0a000770037006420e10001
:1008b00002003a00838f6c00770033000801be000d
:1008c0000200be00700037000001be0048000700b3
:1008d0000470a70003f0a1006509b1001600320002
:1008e0000d0035006828e10006003500f0ff2f00fc
:1008f000f1ff27000300e00013003b000100280087
:100900000000050000004000818048008502e900e9
:10091000fcff3a0008003700f88f420002003c005c
:100920008000eb00000005008100d1000080d300b2
:100930008502e800fcff3a000300e00002003b00f3
:1009400060001000e0801800000006004f89de0003
:100950008201780087003700810020006180550007
:100960000b003d000b00200061fe2f000100e100a4
:100970001d00340082817100610164008904d1008e
:100980000884d3000000e800faff3a00710020005c
:100990006100640003007000020060000900320082
:1009a00061044400e0844c000988a5000500320081
:1009b0008b05e8006808e10002003a008904d100d4
:1009c0000884d300f20f20000258e10005003d002a
:1009d000c75ddd00f907b200898075000800780066
:1009e000000006000bf827008b00780000000500cf
:1009f000c70ade00f107b200f50fb20008003200ae
:100a0000e1cf4200020032000170a0002400050086
:100a1000810f700001003200040805004400050049
:100a2000810f700002003a00140005008502e90001
:100a30000000400081c04800fcff3b000170a000a6
:100a4000240005000004be00e9ff07000003be000b
:100a50000405be000200be00e5ff0700844f7500dc
:100a6000000006000200be006450e10005003600f0
:100a70006420e100020036000968a30001003a008a
:100a80000800be000160a0004f0678004f05be00c0
:100a90004f04be0000000600f0ff2f00f1ff27000a
:100aa000f9ff3700889fbe008a9fbe008c1f780028
:100ab000e4ff0700ebff330003866c006450e100a5
:100ac000240032006420e100270032006150e10080
:100ad000220032006120e100210032008b854200bb
:100ae000eb07b1000134b800003ab8000804420036
:100af00089844a00013ab8000030b800888040007c
:100b000009014a00040033000000400081804800d1
:100b1000020149008b05e900c909dd00830170006d
:100b20000100320013002000c814de004814dd006c
:100b30004709de001200b200c808de000884700019
:100b400085ff070001f0a1000cf0a70001f0a00054
:100b5000cdff37006120e100cfff32000801be0069
:100b60000200be00f7ff37006150e100fcff3a00d1
:100b7000c9ff3700881f7800030478000300e000f5
:100b800007003d0060001000e080180060011900bf
:100b9000e081190002003b0001f02d000300370046
:100ba0000400070008f0a70001f0a0004f0478003f
:100bb00000000600889fbe008a9fbe000082700071
:100bc0000402710004827100260032000004be009d
:100bd0000200be006011b8006b09200095022000e1
:100be0000182cf000a0039000541b1000082cf0028
:100bf000070039000541b1000982cf000400390027
:100c00000541b1000882cf00010039000541b10063
:100c100005425200120032000a003b00828171003e
:100c2000610164008100d1000080d3008984d30079
:100c30000884d3008b05e8000442e800f7ff3a007f
:100c4000070037000804440089844c000000480075
:100c5000818048008b05e9000442e900f9ff3a0071
:100c60003dff07004f05be004f04be000000060018
:100c70000000eb0092fe3700800178000200370090
:100c8000815978000201e9000200e000fcff3a000f
:100c900000000600a182200000003700889fbe00ef
:100ca0008a1f78000004be00c9009000690090000f
:100cb000808f500005003900090078009902070074
:100cc0008080eb000000e000160035000845780049
:100cd0004900900008587800c00498001900780076
:100ce00000b8a30004003a0000a8a30007003200e7
:100cf000ea4f540005003a0009007800dd010700c2
:100d00008080eb000000e00006003a0000c02000f8
:100d1000190060000200320049009000e0049800d1
:100d20008a80fb00010078004f0578004f04be0068
:100d300000000600889fbe000004780001007800d3
:100d400082047800880178000901780011002000f1
:100d500003020700890f5000010032000004eb007d
:100d6000080078004f04be00000006000000fa00f2
:100d7000e88157004fb99700a1822000a0692000a8
:100d8000020007000080fa00000006006200fa007e
:100d9000889fbe008a1f78000005780081047800d3
:100da000020478008300780080f92f000f004000d3
:100db0008e0407009a979f00a9979f000000eb0000
:100dc000b09f9f001885fb008a04fb000a05ea001b
:100dd0004f55de0050022000808f54000d0032007d
:100de000e10f55000b003a000a01780088007800f6
:100df0002f9097009f91970003000100a0979f00fc
:100e00000000e0008e0032003f9897000000e800ec
:100e1000b09f9f000a04440050022000808f5400bd
:100e2000040032000900e000e6ff3a003f98970016
:100e3000840037000000eb00909f9f00809f9f0080
:100e4000f0979f00e0979f00d0979f00c0979f006a
:100e500007003700018c2000010050000000400016
:100e6000418b200061007800df989700010070003e
:100e7000d09f9f00880478000904780038457800e6
:100e80008a00fb00008c20001a0207000000e0002e
:100e9000f0ff3a00a1c2b300814f55000e003a00a6
:100ea000cf8897000180e900c08f9f001000780074
:100eb000c09f9f000000e00005003d000000ea0028
:100ec000c09f9f005f9897000020a000d09f9f00c8
:100ed0000904e8000f003700c09f9f000000eb00ee
:100ee00005003700f2ff2700820f50000200320099
:100ef0006a01b90002804000090478008804780083
:100f0000b900fb000103b100e98f5000f5ff360086
:100f1000c09f9f00e0c2b300984f10000200320053
:100f20000080eb0019003700a0c2b300d84f1000ba
:100f300007003a00cf8897000180e900c08f9f002a
:100f400010007800a09f9f000804e8001000370000
:100f50000000eb00a09f9f0088007800050037008c
:100f6000f3ff2700830f5000020032006a02b9002d
:100f70000400410001047800880078003101fb0082
:100f80000203b100e90f5100f5ff3600a09f9f005a
:100f9000984478008900fb00c08a2000d501070032
:100fa0000000e000020032000804e8000100370001
:100fb0008044eb00c97f9f0080c6b30080cf5400ff
:100fc00004003a0098cf14000a003a00664050002e
:100fd00006003700c0c6b30080cf540005003a00b9
:100fe00098cf140003003a0065404000c07f9f0086
:100ff0000804e8001801fb00e3fb2f008f8141008b
:1010000081f92f008f804000a0f92f000f004000d1
:10101000100007000000e00009003a00e1fb2f008b
:101020008f804000a0f92f000f004000330307001d
:101030000000e000020035000804e80061ff37000e
:101040000080eb004f0578004f04be000080fa00de
:1010500000000600881f7800e4c6b300844f5100ea
:10106000b600320010003c006b425200844f510029
:101070001800320005003c0054c2b300844f5100f8
:10108000ee00320084c5b3000f00370044c6b30041
:10109000844f51001400320065424200844f5100d9
:1010a000e9003a001000370004c7b300844f510034
:1010b000d50032005300350065424200844f510094
:1010c0005000320063424200844f5100de003a007b
:1010d0004c0037001181e90082087800f000900090
:1010e00012417800d600370020629000c5c6b300d8
:1010f000854f520007003a00910278006482520046
:10110000840878001402be004fabde00860378002e
:101110001100370015c7b300854f5200030032009d
:10112000a5c6b300854f520006003a009102780030
:1011300068825200840878005403be004402be0056
:10114000050037001182e900840878001402780055
:10115000cfa2de00612bb9000498be000690be004d
:10116000a060900088c6b30088cf50000d00320008
:1011700028c6b30088cf500004003a000402fb00e8
:10118000cfa2de00612bb9000800370048c7b300ca
:1011900088cf5000030032006644440088cf5000de
:1011a00004003a00cfa2de00612bb9000498be0013
:1011b0000690be003002be002003be00f00090008a
:1011c000e00f5200e08f5a00e00f5b00e08f5b0001
:1011d00002003d00d4c2b3000800370000129000a6
:1011e0000418a30002003200b4c2b30003003700a9
:1011f0000408a3004c00320004c2b30084f178005c
:101200004700370020629000c5c6b300854f5200ea
:1012100006003a0091027800648252008408780047
:101220001402be006033b8001100370015c7b300c8
:10123000854f520003003200a5c6b300854f52000f
:1012400006003a0091027800688252008408780013
:101250005403be004402be00050037001182e900bd
:1012600084087800140278008002eb006033b80034
:101270000498be000690be00a060900088c6b3002f
:1012800088cf50000d00320028c6b30088cf500030
:1012900004003a000482fb008002eb006033b800d7
:1012a0000800370048c7b30088cf50000300320061
:1012b0006644440088cf500004003a008002eb00ee
:1012c0006033b8000498be000690be008010900005
:1012d0000138a300140032003002be002003be001b
:1012e000e00f5200e08f5a00e00f5b00e08f5b00e0
:1012f0000d00320081c7b300814f5100030032005e
:1013000081c5b300814f510007003a00f000900002
:1013100004c3b30084f178008100e80082f1780012
:101320008100e80071009800f00090008181410088
:1013300063009800824078003e003700a061900072
:10134000c4c6b3001181e90084cf510022003200ed
:101350000a003c006442520084cf51002500320054
:1013600004c2e80084cf51001300320068425200ea
:1013700084cf51001e003a000a00370044c7b30072
:1013800084cf51001b0032006642420084cf5100de
:10139000180032006942520084cf510014003a0014
:1013a00005003700820878009200780040589000cd
:1013b000804878002c00370082087800920078007e
:1013c000600a9000cfa2de00612bb9008498be00b5
:1013d0008690be00240037008208780092007800d2
:1013e00060099000cf91de008288be001e003700a9
:1013f0001181e9008208780092007800600890006e
:1014000080087800180037001181e9008208780010
:1014100012027800cfa2de00612bb9000498be0052
:101420000690be00f00090008181410063009800aa
:1014300081c7b300020107000b003700f0009000e5
:1014400082f1780006003700f000900081814100b1
:101450000204e00001003a0052c2b3008249780061
:101460008100e800710098000000eb004f04780054
:1014700000000600889fbe008a1f780000047800e4
:101480000800e0000d003a00888720007005440045
:101490008004eb00580078000000e00004003200f7
:1014a000f4ff07000000e00001003d008084eb0035
:1014b0008a0f5400f7ff3a00250037000000220091
:1014c000180060008004eb0021003200a8049000a6
:1014d0000f00370009015100384090000000fb0068
:1014e000890078008ffc07000000e00007003c0046
:1014f000280090004004980060049800500c980068
:101500001890a0008084eb00110037008084440014
:1015100048019000828f5400eeff390028009000af
:10152000400498009800780002c02000028160000a
:1015300001003a003800900001e8a30002003200e8
:101540006004980001003700500c98008004eb0004
:10155000090078004f0578004f04be000000060027
:10156000889fbe008a9fbe008c9fbe008e1f7800a1
:1015700000067800010478000200780083047800f7
:101580000881b900020778000200e0004200320042
:101590000800e0004100320082057800c900900098
:1015a00069009000808f5000040039000900780025
:1015b0005c0007000000e00029003500004020002a
:1015c000190060000a0032000b017800a100200021
:1015d0000c00780036000700800678000d00e0005f
:1015e00006003200610516000a8546000400370037
:1015f0000b0578008006eb00010037000b05780032
:1016000049009000e9009000808050008a8f5000cf
:1016100002003100010578008006eb000a01780025
:101620008c0078002c0007008a8555004900900046
:101630000a004000c00498000d00e00004003200e1
:10164000090078008bff07000000e00004003a006a
:101650000b00e000020032000a064600cfff370010
:1016600000802000190060000200320009007800ac
:1016700080ff070000c02000190060000200320057
:1016800049009000e00498008b0557001100090004
:101690008885d800010037000000eb004f07780074
:1016a0004f06be004f05be004f04be0000000600fe
:1016b00003003700b0cf1000050032000201e9003e
:1016c000800178000200e000faff3a000000050007
:1016d0000300780000000600800178000200370057
:1016e000b15978000201e9000200e000fcff3a0075
:1016f00000000600020037000304e000060032008c
:101700000001780002007800b041780081cf5100dc
:10171000f9ff3a00010037000001eb0002007800f9
:1017200000000600889fbe008a1f78000004780031
:10173000c8009000680190000000eb00828f50000c
:101740003c003900180078002200290002016000e6
:10175000e20f510007003200012024000000e000e9
:1017600001003d0001202000008c70000080eb0093
:10177000300037000200260002006000820f500097
:1017800009003a0038009000808f500006003900b0
:101790000800780037ff0700800078000080eb0029
:1017a0000100e00023003a001805780000c0200086
:1017b0000000650018003a00a804900060022000b4
:1017c00008004000808f540013003a0000202000e1
:1017d000dc020700200498000000e00005003a0049
:1017e00029049800490498008904e8003904980005
:1017f000080037000a60a0000a0c78004004980036
:10180000012020008080400031049800400c9800a6
:10181000500c9800f901070028009000500498002f
:10182000380090006004980000002600180c70003a
:101830000000eb004f0578004f04be0000000600da
:10184000fc874700889fbe008a9fbe008c9fbe0019
:101850008e1f78000006780080c5b30080cf50004e
:101860000a0032007740400080cf50000a0032006a
:101870006940400080cf50000b003200b08920004a
:1018800080bf9f00ae0020000a003700a288200021
:1018900082bf9f0006003700b389200083bf9f00ee
:1018a0008e00200003003700b489200084bf9f0011
:1018b0000e0120003c02be002c03be000605be0047
:1018c0000404be0040c6b30080cf500003003200c5
:1018d0006540400080cf50000b003a00e00f5200fe
:1018e000e08f5a00e00f5b00e08f5b0006003d00d8
:1018f0006000b8006011b8000404500085845800ee
:101900000605590087855900e80f5700040032008a
:1019100040002000f00f570038003a000100370067
:1019200030002000e00f5400e08f5c00e00f5d000d
:10193000e08f5d0004003a00dc0890008d0120007b
:101940000100e000060032008e00e900888060009f
:101950008fba9700e5c07800f1ef9f007d0120006d
:10196000800078008100e900050033008b05d1007c
:101970000a85d3008984d3000884d300f9ff370097
:10198000089ebe000a96be00120037008d06e900d0
:101990008e00e900848060000fb99700e2c17800f2
:1019a00082fd2f000f01410003f17e0080007800ce
:1019b0008100e900050033008783d1000683d3004e
:1019c0008582d3000482d300f9ff3700049ebe0055
:1019d0000696be003c02be002c03be00e00f520083
:1019e000e08f5a00e00f5b00e08f5b008b0034005b
:1019f0000d00e000e5ff3c00880037002c609000ff
:101a000081c6b300814f50000b00320006003c003d
:101a10000004e00008003200e6c05000814f500092
:101a20004e003a0004003700c1c6b300814f500099
:101a30004a003a00210037000800e00004003a00a4
:101a40005c0890008d0120000000e00006003200dc
:101a5000110009000e84d8000fb99700e2c0780089
:101a6000f1ef9f007d012000110009000e84d800d5
:101a70000a003700110009000e04d8008d06e900a5
:101a80000e81b900020454008fb8970061417c00b8
:101a900081fd2f008f80400082f07e0000047800de
:101aa0000800e000020032000d00e000f1ff3c0001
:101ab000cfc4de00614db90025003700e00f5400af
:101ac000e08f5c0004003a005c0890008d0120006b
:101ad0000000e000070032006171b9000800be009c
:101ae0006f0207008fb99700e3417800f3ef9f0082
:101af0007d0120006171b9000800be005802070096
:101b00000b0037006171b9000800be0045020700f4
:101b10008d06e90000f1b900020454000fba9700e5
:101b2000e4427c0084fd2f000f02420005f27e009b
:101b30000004be00e00f5000e08f580002003200a9
:101b40000d00e000efff3c004fcdde008a0578007d
:101b5000089ebe000a96be0030003700e00f540019
:101b6000e08f5c00e00f5d00e08f5d0004003a0054
:101b70005c0890008d0120000000e00009003200a8
:101b80006172b900612bb9000800be000a01be00f5
:101b9000ec0207000fba970064427800f4ef9f0050
:101ba0007d0120006172b900612bb9000800be0000
:101bb0000a01be00dc0207000d0037006172b900a7
:101bc000612bb9000800be000a01be00e102070057
:101bd0008d06e90000f2b900040454008fba9700a2
:101be00065427c0085fd2f008f82420084f27e00da
:101bf000009ebe000296be003c04be002c05be0046
:101c0000e00f5400e08f5c00e00f5d00e08f5d00ae
:101c1000020034000d00e000e8ff3c00e80f570030
:101c200010003a000c1090000038a3000d003200a4
:101c3000f78f560006003e0085fd2f008f82420080
:101c4000e5c07e0000c3b30080cf50000500320025
:101c50008d06e90002c3b30081fd2f008f80400094
:101c600082f07e0078811600120e98006c009000c1
:101c700083fd2f008f8141008d80410096fe07007b
:101c80001c089000dc089000810f500006003d0009
:101c900000805000000e98000c1090000040a10041
:101ca000001698000f0037000100e0000d003d0015
:101cb0008c109000f4806000f08f500009003a0012
:101cc0007c099000fc009000810051000c099000fc
:101cd00082805000008050004240a9000100340082
:101ce000000e98004f0778004f06be004f05be005b
:101cf0004f04be00cf01b100000006000400fa004e
:101d0000889fbe008a9fbe008c1f78000004780068
:101d100001067800f80d900078009000808555004d
:101d200008089000808555001808900080855500af
:101d3000280890008085550038089000808555005f
:101d400048089000808555000002220090bf9f0047
:101d500000032300a0bf9f00081090000028a300ec
:101d600015003a000b00e000130034000b0578006a
:101d70008a047800e20f5500010036002900200097
:101d8000c801900009017800ee80570058009000cb
:101d900003000100500498000000e0008c003200b5
:101da0006808900009004000600c98000905550083
:101db0004240a900eeff3c00780190000200e000e4
:101dc0000c003400c80190008c007800580090008e
:101dd00003000100500498008080eb000000e00048
:101de0007c003200e80890007800900000804000fd
:101df000600c9800880c90000900e000110034008d
:101e000009057800e28f5400010036002a00200006
:101e1000c80190000a017800ec805700580090003b
:101e200003000100500498000000e0006800320048
:101e3000680890000a004000600c98008a845400f2
:101e4000edff3700180990000200e0000c0034009c
:101e5000c8019000e80090005800900003000100c5
:101e6000500498008080eb000000e0005900320030
:101e7000e80890001808900000804000600c98006e
:101e8000a80c90000900e00011003400090578005a
:101e9000e28f5400010036002a002000c8019000a3
:101ea0000a017800ec805700580090000300010000
:101eb000500498000000e0004500320068089000df
:101ec0000a004000600c98008a845400edff37003f
:101ed000380990000200e0000e003400e800900095
:101ee0001808900080804000c801900058009000c1
:101ef00003000100500498008080eb000000e00027
:101f000034003200e808900038089000008040005b
:101f1000600c9800c80c90000900e000110034002b
:101f200009057800e28f5400010036002a002000e5
:101f3000c80190000a017800ec805700580090001a
:101f400003000100500498000000e000200032006f
:101f5000680890000a004000600c98008a845400d1
:101f6000edff3700081090008000eb000028a30070
:101f7000180032000b00e000160034008b047800db
:101f800009057800e28f5400010036002a00200085
:101f9000c80190000a017800ee80570058009000b8
:101fa00003000100500498000000e0000800320027
:101fb000680890000a004000600c98008a84540071
:101fc0004240a900eeff3c008000eb00010037001a
:101fd0008080eb00010078004f0678004f05be00be
:101fe0004f04be000080fa000000060001087800df
:101ff00000000600000a210061003700881f7800f9
:10200000488d20001804e00003003a00f9ff0700a3
:1020100020c0b300004c78004f0478000000060098
:10202000889fbe00000478000800780011fd0700ba
:1020300080047800000420001800600002003200d4
:10204000280090005a0007000000eb0020049800d0
:10205000384090000004e000050035000000fb005f
:1020600071f907000000e000010032008084eb00fd
:10207000181090000000e0000800320073f907001b
:102080000000e000010032008084eb001810900096
:10209000470007000000eb00101498000008200023
:1020a00018006000150032000001eb006000b8006d
:1020b000a38720000202d00063027a00880f52003a
:1020c00005003a0000004000818048000080410087
:1020d0000008eb000600370061004000e080480087
:1020e0000201e800e80f5000e08f5800f0ff3a00ce
:1020f000080078002e0007000e003700000c780062
:1021000000c0eb003044980060022000080040004e
:10211000200498004004980050049800400c980057
:1021200060049800500c98007004980076004400f9
:10213000000c9800090078004f04be000000060063
:10214000881f78000004eb006140b800e2ff2f0018
:10215000f3ff2f00d500070082882000620078007e
:102160000000e00001003200adff07000804e800b5
:10217000e80f5400f4ff3a004f0478000000060016
:10218000010020000100e000080032000100800092
:102190000100e000050032008100e9000100880034
:1021a0008100d0000200800000b17800000006002d
:1021b0000000e0002f003200c0017800e38f5100e2
:1021c0002c0036000308a3002a003a009146800044
:1021d0000100e00002003200810f500004003100d5
:1021e00011009800904688001600370082007800a1
:1021f000110190000200e00002003200800f510047
:10220000faff39001102780084824000850f5000e7
:1022100018003900808f520003003a008308420002
:1022200001007800070037000200e00003003200e0
:1022300083014000830f51000e0039001200980006
:1022400090009800900090000100e000090032002a
:1022500010014000828f500006003a00028d2000dd
:102260000009eb0010017800110841009100900076
:102270001100980000000600889fbe00000478004e
:10228000814680000100e000020032000100780079
:102290000d00370091468000208d2000040037009b
:1022a000910f5400250036000180e8009100900055
:1022b0000100e000faff3a0010003700920f5400ce
:1022c0001e0036000280e800100178000200e000e5
:1022d000faff3a001101780091468000208d20001d
:1022e00004003700910f5400140036000180e8000c
:1022f00091009000828f5000faff3a00b9468000aa
:10230000888f5400010031008804780009007800ab
:10231000360007000000e00004003a00888f5400f7
:10232000050032008904d100f5ff37000918780054
:102330009fff0700d2ff37000000eb004f04be00f4
:1023400000000600881f7800630440000800a10018
:102350008000eb00800f540021003600e30f540092
:1023600001003e004800200008007800c2ff07007e
:102370008000eb000000e0001900320090007800bf
:102380009101780064815100880f510003003100f1
:102390001101900002087800070037000881400012
:1023a0000208780091019000130198001001780054
:1023b0001109140088087800100178000000eb0073
:1023c0000200e00004003200920190000300e000ef
:1023d000010032000280e800804688008180e80029
:1023e000010078004f0478000000060080007800ab
:1023f0000000eb000100e00005003400010078005f
:102400009bf80700e10f400001003a000000eb00dc
:102410000000060000c0da000000060000c0da007c
:1024200000000600839f68000100e00002003d00fc
:1024300060001000e08018000300e00002003d0092
:1024400060011100e0811900050007004f00e00065
:1024500002003b0060001000e08018000000060051
:102460006022b800060220000000d0008180d20067
:102470000482d2008582d2000000a0000202520035
:1024800083825a00030031000202420083824a0024
:102490000000a1000603e900f3ff3a000000060077
:1024a000efff07000400be0000000600020ab900aa
:1024b000001bb9000200b800810042008100430007
:1024c00000000600889fbe008a9fbe0030044200c4
:1024d000b0844a0030054b0090854b006000b1008d
:1024e0000898be000a90be000440e10005c8e10063
:1024f00006d0e10007d8e10002003100680040008a
:102500001008e8004f05be004f04be0000000600a2
:10251000889fbe008a9fbe003004be002005be001a
:102520000418540005985c0006185d0007985d00cb
:10253000110020000440e10005c8e10006d0e100e0
:1025400007d8e100010039008000eb00108810007e
:102550004f05be004f04be00000006001200fa0046
:10256000889fbe008a9fbe008c9fbe00e0b79f0080
:10257000f1b79f0082bf9f0093bf9f000605be007a
:102580000404be000000eb00d0b79f00c0b79f005e
:10259000b0b79f00a0b79f0090b79f000006eb0068
:1025a0005fb19700cfb09700820141003fb0970024
:1025b0000200e00004003d00370007007e80570065
:1025c000c0ff070003003700330007007e8057007c
:1025d000cfff0700dfb697000d00e0000c003500cc
:1025e0006fb29700ffb297000fbb97009fbb970099
:1025f00010002000010020006011b80000027200ed
:102600008182720002037300838373001b00070042
:102610000c06e80001042000810f5600e0ff3a009c
:102620000d00e00004003d000802be000a03be00e9
:102630007e805700a3ff07005fa897000000e0001e
:1026400005003a001fb29700afb297003fb3970062
:10265000cfb39700090007006fb09700ffb0970055
:102660000fb997009fb997004f06be004f05be00f7
:102670004f04be000080fa000000060001000700c1
:1026800000000600a4b79f00b5b79f00c6b79f0023
:10269000d7b79f00000006004f09de00828171005d
:1026a000b3b79f004f01de00818040008280700040
:1026b000a1b79f008fb097004f09de0000004000d7
:1026c0000200700090b79f007fa897004f01de00c6
:1026d000818040008280700081b79f000d0007005c
:1026e0004f3ade000000400004007000f0af9f0091
:1026f000080007000402420085824a0006034b00de
:1027000087834b00dfff07000802be000a03be00fc
:10271000000006002fb29700bfb297004fb397009a
:10272000dfb3970000000600881f78001800200023
:10273000881f780089ff07008f87e9004f04780021
:1027400000000600801feb0084ff07008f87e90070
:1027500000000600889fbe008a9fbe00e00f500068
:10276000e08f5800e00f5900e08f59000c003d0049
:102770006044b8006055b8000000540081805c00df
:1027800002015d0083815d00180020001500070034
:1027900008003d00180007000004eb0005003700aa
:1027a0000004eb000f00070002003d0012000700cc
:1027b00018002000dcff07000800e00006003200df
:1027c0006022b8006033b8000000520081805a00d7
:1027d00002015b0083815b004f05be004f04be0019
:1027e00000000600e00f5200e08f5a00e00f5b008f
:1027f000e08f5b00000006006044b8006055b80040
:102800000402540085825c0006035d0087835d003e
:1028100000000600889fbe008a9fbe008c1f7800c3
:10282000e00f5000e08f5800e00f5900e08f590092
:102830000d003d006044b8006055b8000000540031
:1028400081805c0002015d0083815d001c0020002e
:102850000820e10009a8e1000ab0e1000bb8e1009e
:102860000d003d00080037000006eb00e00f5200ad
:10287000e08f5a00e00f5b00e08f5b0006003d0038
:102880006044b8006055b8000402540085825c00c2
:1028900006035d0087835d00aaff07000c00e000cf
:1028a000060032006022b8006033b8000000520019
:1028b00081805a0002015b0083815b004f06780033
:0c28c0004f05be004f04be0000000600e3
:020000040000fa
:1028cc0047610000733a000025360000640d0000db
:0428dc0000000000f8
:020000040000fa
:1028e0000000fa00889fbe008a9fbe008c9fbe0039
:1028f00001308000f07f2e000080600000308800f2
:10290000013080000030200001007000003088009d
:1029100001308000f0f32f0000806000003088005c
:1029200000a6a9000086a9000046a90000202000fa
:102930005030880009e6a90009c6a8000986a80049
:102940000946a8000926a80009a6a8000906a900aa
:1029500041308000f0f92f00008060000060a0008e
:102960004030880061308000f0ff2300008060006c
:102970006030880061308000000c20000100700091
:102980006030880061308000c003200001007000ca
:1029900060308800603080003000b3006030880014
:1029a0000266ef00100020003030880005e6a80025
:1029b00005c6a8000586a80005a6a800213080004d
:1029c0000060200001007000203088000506a8008b
:1029d00001e6a80000e224005c01070000e22400f8
:1029e0005a010700820320000c0028004d0020003f
:1029f000a00180008d0178008c007800a301880080
:102a000082087800a0018800802025004f0107007f
:102a1000c20020000a0028004b002000a001800016
:102a20008b0178008a007800a30188008208780072
:102a3000a0018800803e20004401070062002000c1
:102a40000800280049002000a001800089017800ca
:102a500088007800a301880082087800a00188001f
:102a600080bb2000390107007200070010c0b300ce
:102a70004f06be004f05be004f04be000080fa00a6
:102a8000000006000400fa00000f7800110798000b
:102a90000a0037001e007800104078000000fb009c
:102aa0000000e000110032001e00780010407800a5
:102ab0001e0fe80010000700000000001e0090003c
:102ac00000f0a7000000ea000000ea004f00de006e
:102ad000004078009e0090008100e90011079800f6
:102ae0000004e000ebff3a000100370000000000a6
:102af0000080fa00000006000200fa00889fbe0075
:102b00008a9fbe00004f78001e00fb00ea0f5000b5
:102b100007003200ed0f500003003200e80f5000b4
:102b20000a0032000e0037005f0007003d0037004a
:102b300000c8bf000004e00002003a00f8000700ef
:102b400038003700eb00070036003700750007003b
:102b500000c2b300e8ff0700720007003100370031
:102b60001e02fb002200280043002000a00180007c
:102b70008302780082007800a5018800840878002c
:102b8000a0018800803e2000f000070001c8bf00bf
:102b90000040e80001e8b70001c8bf00f04f500056
:102ba0001f003a000168ef0000c8bf000004e00009
:102bb0000e003a00020c20000a0028004b00200002
:102bc000a00180008b0178008a007800a3018800b2
:102bd00082087800a001880080bb2000db0007008d
:102be00010c0b30000e8b7000e0037000208200054
:102bf0000800280049002000a00180008901780019
:102c000088007800a301880082087800a00188006d
:102c100080bb2000cd0007000068ef0001003700f6
:102c2000000000004f05be004f04be000080fa0007
:102c3000000006000000fa00889fbe00130020007c
:102c40000000280041002000a2018000010278005d
:102c500000007800a401880003087800a201880021
:102c600080bb2000b90007002200200008002800d7
:102c700049002000a00180008901780088007800c8
:102c8000a301880082087800a001880080bb200092
:102c9000ae0007000068ef000168ef004f04be00bf
:102ca0000080fa00000006000000fa000480200006
:102cb000144278000404e0000c003a0004082000ec
:102cc0000200280043002000a00180008302780059
:102cd00082007800a501880084087800a00188009f
:102ce00080bb2000990007000b003700030c200078
:102cf0000000280041002000a201800001027800ad
:102d000000007800a401880003087800a201880070
:102d100080bb20008d0007000168ef000080fa00f2
:102d2000000006000200fa0016802000164378001a
:102d30000604e00026003a0000c8bf000004e000de
:102d40000e003a00020c200004002800450020007c
:102d5000a00180008501780084007800a30188002c
:102d600082087800a001880080bb2000770007005f
:102d700010c0b30000e8b7000c00370004082000c2
:102d80000200280043002000a00180008302780098
:102d900082007800a501880084087800a0018800de
:102da00080bb2000690007000068ef000040eb00d6
:102db000004f780002003700180007001e4fe8009f
:102dc0001e407800ee4f5000fbff36001100370028
:102dd00012802000124178000241e900824178000f
:102de00011802000834878000301200000002800a3
:102df00041002000a201800001027800000078005c
:102e0000a401880003087800a2018800803e200009
:102e10004e0007000080fa00000006000000fa00e3
:102e2000889fbe008a9fbe0043012000000028004a
:102e300041002000a201800001027800000078001b
:102e4000a401880003087800a2018800803e2000c9
:102e50003e00070001c8bf000040e80001e8b700dd
:102e600001c8bf00f04f50001e003a000168ef009b
:102e700000c8bf000004e0000e003a00020c200071
:102e80000a0028004b002000a00180008b01780080
:102e90008a007800a301880082087800a0018800d9
:102ea00080bb20002900070010c0b30000e8b70075
:102eb0000c0037000208200008002800490020000c
:102ec000a00180008901780088007800a3018800b3
:102ed00082087800a001880080bb20001b0007004a
:102ee0000068ef004f05be004f04be000080fa00ee
:102ef000000006000200fa000040eb00004f7800de
:102f00000200370087ff07001e4fe8001e407800d0
:102f1000ef4f5000fbff36000080fa000000060073
:102f20000200fa000040eb00004f7800020037007a
:102f3000baff07001e4fe8001e407800ef4f500018
:102f4000fbff36000080fa00000006000200fa00d5
:102f5000000f7800010037001e0fe9001e00780006
:102f60000000e000fcff3a000080fa0000000600cc
:102f70000200fa00004f78001e4078000004e000d4
:102f80000c003200f2002000040028004500200060
:102f9000a00180008501780084007800a3018800ea
:102fa00082087800a001880080bb2000e7ff0700ae
:102fb0000b003700c400200002002800430020005e
:102fc000a00180008302780082007800a5018800bb
:102fd00084087800a001880080bb2000dbff070088
:102fe0000080fa00000006000400fa0010079800b4
:102ff0000040eb00004f7800110037001e80fb00fe
:103000006a00b90080007800608c200000804000d9
:10301000900078001e009000808f500007003a005a
:103020001e80fb006a00b90080007800608c2000e0
:10303000008040008000eb00010878001e4fe8008f
:103040001e4078000004e000ecff32000080fa002f
:10305000000006000800fa001007980022079800f8
:10306000330798000040eb00004f78002100370044
:103070001e80fb006a00b90080007800608c200090
:1030800000804000100078000000e00018003a00c6
:103090001e80fb006a00b90080007800608c200070
:1030a000008040009e009000010878001e80fb0018
:1030b0006a00b90080007800808c20000080400009
:1030c0002e019000be0190000288be001e80fb0011
:1030d0006a00b90080007800c08c200000814000a8
:1030e0006000b8000089be0010c0b30005003700c2
:1030f0001e4fe8001e4078000004e000dcff3200b4
:103100000040eb000080fa00000006000200fa0018
:10311000000f78001e007800e10f50001700320009
:10312000e10f500003003900e20f5000250032008b
:1031300027003700a20020008000eb00608c2000f8
:10314000cdf607004105800080ff2f000080600061
:103150000000a000400588008500a9000a21ef00ba
:10316000007d20007008880000012a009008880077
:103170009500a80010c0b30016003700a200200080
:103180008000eb00608c2000bbf60700210580006a
:10319000f0ff28000080600000e0a000200588000b
:1031a0008460a9000021ef000000280010088800ba
:1031b00020002800200888009460a80010c0b300f8
:1031c000040037009500a90010c0b30001003700cb
:1031d0000040eb000080fa00000006003600f80016
:1031e000809fbe00829fbe00849fbe00869fbe005f
:1031f0003200f8003400f80010002000a001880020
:1032000000202000900188000200fa000040eb003e
:10321000004f7800360037001e80fb006a00b900be
:1032200080007800608c2000008040001000780052
:103230000000e0002d0032001e81fb006a10b90082
:1032400000007800e6004000608c20000080400014
:103250001000be0061004000e08048006a11b90023
:1032600082017800c28c2000028141000089be00ea
:103270001e80fb006a00b90000007800e6004000f4
:10328000608c2000008040001001be001e80fb000a
:103290006a00b900000078008080e800608c20009f
:1032a000008040001000be00800f5100818f590047
:1032b0000e003a001e80fb006a00b9008000780012
:1032c000608c2000008040001000780000000100a9
:1032d0001e80fb006a00b90080007800c08c2000ce
:1032e000008140006000b8000089be001e4fe80069
:1032f0001e4078000004e000c7ff32008500a900ee
:103300000080fa003400f9003200f9004f03be00db
:103310004f02be004f01be004f00be003600f90054
:10332000004006000000fa0011198000f0ff2100a3
:10333000008060001019880000c0eb0024e3b70093
:1033400001198000f0f12f00008060000019880052
:1033500021198000f00f2e000080600000c0a00046
:103360002019880001198000f0cf2f000080600034
:10337000001988001119800030f82f0000806000cb
:103380001019880021e3a8000080fa000000060060
:103390000800fa00200798003107980034f607006b
:1033a0006af507002e019000be019000e9f40700c5
:1033b00045f50700008fbe00000000002cf6070056
:1033c000be0f5000ae8f5800fcff35000080fa00a1
:1033d000000006000800fa00200798003107980056
:1033e0002e009000401988002023a8006000b8003b
:1033f000008fbe0005003700000000001200200012
:10340000030020001e0f41005e974900703e20001f
:10341000010020001e01be00800f5100818f590065
:10342000f5ff36002023a9006000b800008fbe0021
:1034300005003700000000001200200003002000fb
:103440001e0f41005e974900703e200001002000e1
:103450001e01be00800f5100818f5900f5ff36001c
:103460000000000000198000610060000000e00022
:10347000fcff3200001880008000eb000080fa00a2
:10348000000006000200fa00000f7800400620004d
:103490009e007800808f500002003400c2c2a80055
:1034a00007003700300620009e007800808f500013
:1034b00002003c00c2e2a80001003700c322a800bd
:1034c0000080fa00000006000600fa00c0c2a90051
:1034d000e0c4a900c0e2a900e0e4a900c122a9005b
:1034e000e124a90080000700c0002000e9f50700e2
:1034f0008cff0700e2a4a800e284a800400020009e
:1035000001002000b3ff0700000f780050002000ea
:1035100001002000afff0700100798001e00900078
:10352000cf80de0009f5070092712600c311240048
:103530005cf50700e4f40700200798009e1f780060
:1035400060462900801f780008f60700e4875700ce
:103550000000200001f023008dff07001e0078000e
:08356000c8ff0700e5ff37007a
:020000040000fa
:10356800000800000200000080000000c6080000fb
:103578000a00000080000000020800008800000027
:103588008200000001000000002808002908280027
:10359800082808002808280008180800000000006b
:1035a8000000000000000000000000000000000013
:1035b80000000000000000000002080001015000a7
:1035c80008510800500850000850080050084000f2
:1035d80008000000000000000000000000000000db
:1035e80000000000000000000000000000000200d1
:1035f800080202007808790008780800780878003e
:1036080008780800680800000000000000000000ba
:1036180000000000000000000000000000000000a2
:103628000000000002082a000852080000000000fc
:10363800000000000000000000000000ac080000ce
:103648001a00000082000000686a6c00747a4c005e
:103658000000010000020000040008000010000043
:10366800000020002b2d2300300000008a080000f5
:10367800220000008200000030313200333435006f
:10368800363738003941420043444500460030008f
:10369800313233003435360037383900616263001f
:1036a8006465660000000000d40800000200000005
:1036b80080000000d6080000020000008200000020
:1036c80004000000d0080000040000008000000092
:1036d800d808000002000000800000000000000080
:020000040000fa
:1036e8000000fa007cfc07000080fa0000000600d9
:1036f8003200f8003400f800881f78001800200015
:10370800a801880008202000980188004f0478004c
:103718000000fa008020a900ffff37003200f800ff
:103728003400f800881f780018002000a8018800dd
:1037380008202000980188004f0478000000fa0053
:103748008060a900ffff37003200f8003400f8005d
:10375800881f780018002000a80188000820200091
:10376800980188004f0478000000fa008040a90002
:10377800ffff37003200f8003400f800881f780097
:1037880018002000a801880008202000980188005f
:103798004f0478000000fa008080a900ffff37007e
:1037a8003200f8003400f800881f78001800200064
:1037b800a801880008202000980188004f0478009c
:1037c8000000fa008020a900ffff37003200f8004f
:1037d8003400f800881f780018002000a80188002d
:1037e80008202000980188004f0478000000fa00a3
:1037f8008060a900ffff37003200f8003400f800ad
:10380800881f780018002000a801880008202000e0
:10381800980188004f0478000000fa008040a90051
:10382800ffff37003200f8003400f800881f7800e6
:1038380018002000a80188000820200098018800ae
:103848004f0478000000fa008080a900ffff3700cd
:020000040000fa
:020000040005f5
:0457f400ffff0000b3
:020000040000fa
:020000040005f5
:0457f800be1b0000d4
:020000040000fa
:020000040005f5
:0457fc007f3e0000ec
:00000001FF
